{
  "_format": "hh-sol-artifact-1",
  "contractName": "ConfidentialWordGame",
  "sourceName": "contracts/ConfidentialWordGame.sol",
  "abi": [
    {
      "inputs": [
        {
          "internalType": "address",
          "name": "_relayer",
          "type": "address"
        }
      ],
      "stateMutability": "nonpayable",
      "type": "constructor"
    },
    {
      "inputs": [
        {
          "internalType": "address",
          "name": "owner",
          "type": "address"
        }
      ],
      "name": "OwnableInvalidOwner",
      "type": "error"
    },
    {
      "inputs": [
        {
          "internalType": "address",
          "name": "account",
          "type": "address"
        }
      ],
      "name": "OwnableUnauthorizedAccount",
      "type": "error"
    },
    {
      "inputs": [],
      "name": "ReentrancyGuardReentrantCall",
      "type": "error"
    },
    {
      "anonymous": false,
      "inputs": [
        {
          "indexed": true,
          "internalType": "address",
          "name": "player",
          "type": "address"
        },
        {
          "indexed": false,
          "internalType": "uint256",
          "name": "gatewayRequestId",
          "type": "uint256"
        }
      ],
      "name": "BalanceCheckRequested",
      "type": "event"
    },
    {
      "anonymous": false,
      "inputs": [
        {
          "indexed": true,
          "internalType": "address",
          "name": "player",
          "type": "address"
        },
        {
          "indexed": false,
          "internalType": "uint256",
          "name": "timestamp",
          "type": "uint256"
        }
      ],
      "name": "BalanceDeposited",
      "type": "event"
    },
    {
      "anonymous": false,
      "inputs": [
        {
          "indexed": true,
          "internalType": "address",
          "name": "player",
          "type": "address"
        },
        {
          "indexed": false,
          "internalType": "uint256",
          "name": "amount",
          "type": "uint256"
        },
        {
          "indexed": false,
          "internalType": "uint256",
          "name": "timestamp",
          "type": "uint256"
        }
      ],
      "name": "BalanceWithdrawn",
      "type": "event"
    },
    {
      "anonymous": false,
      "inputs": [
        {
          "indexed": true,
          "internalType": "uint256",
          "name": "gameId",
          "type": "uint256"
        },
        {
          "indexed": false,
          "internalType": "uint8",
          "name": "wordLength",
          "type": "uint8"
        }
      ],
      "name": "EncryptedWordSet",
      "type": "event"
    },
    {
      "anonymous": false,
      "inputs": [
        {
          "indexed": true,
          "internalType": "uint256",
          "name": "gameId",
          "type": "uint256"
        },
        {
          "indexed": true,
          "internalType": "address",
          "name": "winner",
          "type": "address"
        },
        {
          "indexed": false,
          "internalType": "uint256",
          "name": "timestamp",
          "type": "uint256"
        }
      ],
      "name": "GameEnded",
      "type": "event"
    },
    {
      "anonymous": false,
      "inputs": [
        {
          "indexed": true,
          "internalType": "uint256",
          "name": "roomId",
          "type": "uint256"
        },
        {
          "indexed": true,
          "internalType": "uint256",
          "name": "gameId",
          "type": "uint256"
        },
        {
          "indexed": false,
          "internalType": "uint8",
          "name": "wordLength",
          "type": "uint8"
        },
        {
          "indexed": false,
          "internalType": "uint256",
          "name": "startTime",
          "type": "uint256"
        }
      ],
      "name": "GameStarted",
      "type": "event"
    },
    {
      "anonymous": false,
      "inputs": [
        {
          "indexed": true,
          "internalType": "uint256",
          "name": "gameId",
          "type": "uint256"
        },
        {
          "indexed": true,
          "internalType": "address",
          "name": "player",
          "type": "address"
        },
        {
          "indexed": false,
          "internalType": "uint256",
          "name": "gatewayRequestId",
          "type": "uint256"
        },
        {
          "indexed": false,
          "internalType": "uint8",
          "name": "attemptNumber",
          "type": "uint8"
        }
      ],
      "name": "GuessSubmitted",
      "type": "event"
    },
    {
      "anonymous": false,
      "inputs": [
        {
          "indexed": true,
          "internalType": "uint256",
          "name": "gameId",
          "type": "uint256"
        },
        {
          "indexed": true,
          "internalType": "address",
          "name": "player",
          "type": "address"
        },
        {
          "indexed": false,
          "internalType": "bool",
          "name": "isCorrect",
          "type": "bool"
        },
        {
          "indexed": false,
          "internalType": "uint8",
          "name": "attemptNumber",
          "type": "uint8"
        }
      ],
      "name": "GuessValidated",
      "type": "event"
    },
    {
      "anonymous": false,
      "inputs": [
        {
          "indexed": true,
          "internalType": "address",
          "name": "previousOwner",
          "type": "address"
        },
        {
          "indexed": true,
          "internalType": "address",
          "name": "newOwner",
          "type": "address"
        }
      ],
      "name": "OwnershipTransferred",
      "type": "event"
    },
    {
      "anonymous": false,
      "inputs": [
        {
          "indexed": true,
          "internalType": "uint256",
          "name": "roomId",
          "type": "uint256"
        },
        {
          "indexed": true,
          "internalType": "address",
          "name": "player",
          "type": "address"
        },
        {
          "indexed": false,
          "internalType": "string",
          "name": "displayName",
          "type": "string"
        }
      ],
      "name": "PlayerJoined",
      "type": "event"
    },
    {
      "anonymous": false,
      "inputs": [
        {
          "indexed": true,
          "internalType": "uint256",
          "name": "gameId",
          "type": "uint256"
        },
        {
          "indexed": true,
          "internalType": "address",
          "name": "player",
          "type": "address"
        },
        {
          "indexed": false,
          "internalType": "uint256",
          "name": "position",
          "type": "uint256"
        }
      ],
      "name": "PrizeDistributed",
      "type": "event"
    },
    {
      "anonymous": false,
      "inputs": [
        {
          "indexed": true,
          "internalType": "address",
          "name": "previousRelayer",
          "type": "address"
        },
        {
          "indexed": true,
          "internalType": "address",
          "name": "newRelayer",
          "type": "address"
        }
      ],
      "name": "RelayerAccepted",
      "type": "event"
    },
    {
      "anonymous": false,
      "inputs": [
        {
          "indexed": true,
          "internalType": "address",
          "name": "currentRelayer",
          "type": "address"
        },
        {
          "indexed": true,
          "internalType": "address",
          "name": "proposedRelayer",
          "type": "address"
        },
        {
          "indexed": false,
          "internalType": "uint256",
          "name": "effectiveTime",
          "type": "uint256"
        }
      ],
      "name": "RelayerProposed",
      "type": "event"
    },
    {
      "anonymous": false,
      "inputs": [
        {
          "indexed": true,
          "internalType": "address",
          "name": "canceledRelayer",
          "type": "address"
        }
      ],
      "name": "RelayerTransferCanceled",
      "type": "event"
    },
    {
      "anonymous": false,
      "inputs": [
        {
          "indexed": true,
          "internalType": "uint256",
          "name": "roomId",
          "type": "uint256"
        },
        {
          "indexed": true,
          "internalType": "address",
          "name": "creator",
          "type": "address"
        },
        {
          "indexed": false,
          "internalType": "uint256",
          "name": "timestamp",
          "type": "uint256"
        }
      ],
      "name": "RoomCreated",
      "type": "event"
    },
    {
      "anonymous": false,
      "inputs": [
        {
          "indexed": true,
          "internalType": "uint256",
          "name": "gameId",
          "type": "uint256"
        },
        {
          "indexed": false,
          "internalType": "uint8",
          "name": "qualifiedPlayerCount",
          "type": "uint8"
        },
        {
          "indexed": false,
          "internalType": "address[]",
          "name": "qualifiedPlayers",
          "type": "address[]"
        }
      ],
      "name": "RoundCompleted",
      "type": "event"
    },
    {
      "anonymous": false,
      "inputs": [
        {
          "indexed": true,
          "internalType": "address",
          "name": "player",
          "type": "address"
        },
        {
          "indexed": false,
          "internalType": "uint256",
          "name": "amount",
          "type": "uint256"
        },
        {
          "indexed": false,
          "internalType": "string",
          "name": "reason",
          "type": "string"
        }
      ],
      "name": "XPAwarded",
      "type": "event"
    },
    {
      "inputs": [],
      "name": "ENTRY_FEE",
      "outputs": [
        {
          "internalType": "uint256",
          "name": "",
          "type": "uint256"
        }
      ],
      "stateMutability": "view",
      "type": "function"
    },
    {
      "inputs": [],
      "name": "GATEWAY_CALLBACK_TIMEOUT",
      "outputs": [
        {
          "internalType": "uint256",
          "name": "",
          "type": "uint256"
        }
      ],
      "stateMutability": "view",
      "type": "function"
    },
    {
      "inputs": [],
      "name": "INITIAL_WORD_LENGTH",
      "outputs": [
        {
          "internalType": "uint8",
          "name": "",
          "type": "uint8"
        }
      ],
      "stateMutability": "view",
      "type": "function"
    },
    {
      "inputs": [],
      "name": "LETTER_ENCODING_BASE",
      "outputs": [
        {
          "internalType": "uint8",
          "name": "",
          "type": "uint8"
        }
      ],
      "stateMutability": "view",
      "type": "function"
    },
    {
      "inputs": [],
      "name": "MAX_ATTEMPTS_PER_ROUND",
      "outputs": [
        {
          "internalType": "uint8",
          "name": "",
          "type": "uint8"
        }
      ],
      "stateMutability": "view",
      "type": "function"
    },
    {
      "inputs": [],
      "name": "MAX_PLAYERS_PER_ROOM",
      "outputs": [
        {
          "internalType": "uint8",
          "name": "",
          "type": "uint8"
        }
      ],
      "stateMutability": "view",
      "type": "function"
    },
    {
      "inputs": [],
      "name": "MAX_QUALIFIED_PLAYERS",
      "outputs": [
        {
          "internalType": "uint8",
          "name": "",
          "type": "uint8"
        }
      ],
      "stateMutability": "view",
      "type": "function"
    },
    {
      "inputs": [],
      "name": "MAX_WORD_LENGTH",
      "outputs": [
        {
          "internalType": "uint8",
          "name": "",
          "type": "uint8"
        }
      ],
      "stateMutability": "view",
      "type": "function"
    },
    {
      "inputs": [],
      "name": "RELAYER_TRANSFER_DELAY",
      "outputs": [
        {
          "internalType": "uint256",
          "name": "",
          "type": "uint256"
        }
      ],
      "stateMutability": "view",
      "type": "function"
    },
    {
      "inputs": [],
      "name": "ROUND_TIME_LIMIT",
      "outputs": [
        {
          "internalType": "uint256",
          "name": "",
          "type": "uint256"
        }
      ],
      "stateMutability": "view",
      "type": "function"
    },
    {
      "inputs": [],
      "name": "RUNNER_UP_SHARE",
      "outputs": [
        {
          "internalType": "uint256",
          "name": "",
          "type": "uint256"
        }
      ],
      "stateMutability": "view",
      "type": "function"
    },
    {
      "inputs": [],
      "name": "THIRD_PLACE_SHARE",
      "outputs": [
        {
          "internalType": "uint256",
          "name": "",
          "type": "uint256"
        }
      ],
      "stateMutability": "view",
      "type": "function"
    },
    {
      "inputs": [],
      "name": "WINNER_SHARE",
      "outputs": [
        {
          "internalType": "uint256",
          "name": "",
          "type": "uint256"
        }
      ],
      "stateMutability": "view",
      "type": "function"
    },
    {
      "inputs": [],
      "name": "acceptRelayer",
      "outputs": [],
      "stateMutability": "nonpayable",
      "type": "function"
    },
    {
      "inputs": [
        {
          "internalType": "uint256",
          "name": "requestId",
          "type": "uint256"
        },
        {
          "internalType": "uint32",
          "name": "decryptedBalance",
          "type": "uint32"
        }
      ],
      "name": "callbackBalanceDecryption",
      "outputs": [
        {
          "internalType": "bool",
          "name": "",
          "type": "bool"
        }
      ],
      "stateMutability": "nonpayable",
      "type": "function"
    },
    {
      "inputs": [
        {
          "internalType": "uint256",
          "name": "requestId",
          "type": "uint256"
        },
        {
          "internalType": "bool",
          "name": "isCorrect",
          "type": "bool"
        }
      ],
      "name": "callbackGuessResult",
      "outputs": [
        {
          "internalType": "bool",
          "name": "",
          "type": "bool"
        }
      ],
      "stateMutability": "nonpayable",
      "type": "function"
    },
    {
      "inputs": [],
      "name": "cancelRelayerTransfer",
      "outputs": [],
      "stateMutability": "nonpayable",
      "type": "function"
    },
    {
      "inputs": [
        {
          "internalType": "string",
          "name": "displayName",
          "type": "string"
        }
      ],
      "name": "createRoom",
      "outputs": [
        {
          "internalType": "uint256",
          "name": "",
          "type": "uint256"
        }
      ],
      "stateMutability": "nonpayable",
      "type": "function"
    },
    {
      "inputs": [
        {
          "internalType": "einput",
          "name": "encryptedAmount",
          "type": "bytes32"
        },
        {
          "internalType": "bytes",
          "name": "inputProof",
          "type": "bytes"
        }
      ],
      "name": "depositBalance",
      "outputs": [],
      "stateMutability": "nonpayable",
      "type": "function"
    },
    {
      "inputs": [
        {
          "internalType": "uint256",
          "name": "roomId",
          "type": "uint256"
        }
      ],
      "name": "emergencyPauseRoom",
      "outputs": [],
      "stateMutability": "nonpayable",
      "type": "function"
    },
    {
      "inputs": [
        {
          "internalType": "uint256",
          "name": "gameId",
          "type": "uint256"
        }
      ],
      "name": "forceCompleteRound",
      "outputs": [],
      "stateMutability": "nonpayable",
      "type": "function"
    },
    {
      "inputs": [],
      "name": "gameCounter",
      "outputs": [
        {
          "internalType": "uint256",
          "name": "",
          "type": "uint256"
        }
      ],
      "stateMutability": "view",
      "type": "function"
    },
    {
      "inputs": [
        {
          "internalType": "uint256",
          "name": "",
          "type": "uint256"
        }
      ],
      "name": "gameRounds",
      "outputs": [
        {
          "internalType": "uint256",
          "name": "gameId",
          "type": "uint256"
        },
        {
          "internalType": "uint256",
          "name": "roomId",
          "type": "uint256"
        },
        {
          "internalType": "uint8",
          "name": "wordLength",
          "type": "uint8"
        },
        {
          "internalType": "uint8",
          "name": "currentStage",
          "type": "uint8"
        },
        {
          "internalType": "uint256",
          "name": "roundStartTime",
          "type": "uint256"
        },
        {
          "internalType": "uint256",
          "name": "roundEndTime",
          "type": "uint256"
        },
        {
          "internalType": "uint8",
          "name": "qualifiedPlayerCount",
          "type": "uint8"
        },
        {
          "internalType": "bool",
          "name": "isComplete",
          "type": "bool"
        },
        {
          "internalType": "bool",
          "name": "prizeDistributed",
          "type": "bool"
        }
      ],
      "stateMutability": "view",
      "type": "function"
    },
    {
      "inputs": [],
      "name": "getEncryptedBalance",
      "outputs": [
        {
          "internalType": "euint32",
          "name": "",
          "type": "uint256"
        }
      ],
      "stateMutability": "view",
      "type": "function"
    },
    {
      "inputs": [
        {
          "internalType": "uint256",
          "name": "gameId",
          "type": "uint256"
        }
      ],
      "name": "getGameInfo",
      "outputs": [
        {
          "internalType": "uint256",
          "name": "id",
          "type": "uint256"
        },
        {
          "internalType": "uint256",
          "name": "roomId",
          "type": "uint256"
        },
        {
          "internalType": "uint8",
          "name": "wordLength",
          "type": "uint8"
        },
        {
          "internalType": "uint8",
          "name": "currentStage",
          "type": "uint8"
        },
        {
          "internalType": "uint256",
          "name": "roundStartTime",
          "type": "uint256"
        },
        {
          "internalType": "uint256",
          "name": "roundEndTime",
          "type": "uint256"
        },
        {
          "internalType": "uint8",
          "name": "qualifiedPlayerCount",
          "type": "uint8"
        },
        {
          "internalType": "bool",
          "name": "isComplete",
          "type": "bool"
        }
      ],
      "stateMutability": "view",
      "type": "function"
    },
    {
      "inputs": [
        {
          "internalType": "uint256",
          "name": "roomId",
          "type": "uint256"
        },
        {
          "internalType": "address",
          "name": "playerAddr",
          "type": "address"
        }
      ],
      "name": "getPlayerInfo",
      "outputs": [
        {
          "internalType": "address",
          "name": "wallet",
          "type": "address"
        },
        {
          "internalType": "uint8",
          "name": "score",
          "type": "uint8"
        },
        {
          "internalType": "uint8",
          "name": "roundsWon",
          "type": "uint8"
        },
        {
          "internalType": "bool",
          "name": "isActive",
          "type": "bool"
        },
        {
          "internalType": "bool",
          "name": "hasGuessed",
          "type": "bool"
        },
        {
          "internalType": "bool",
          "name": "isCorrect",
          "type": "bool"
        },
        {
          "internalType": "uint8",
          "name": "attemptsUsed",
          "type": "uint8"
        },
        {
          "internalType": "string",
          "name": "displayName",
          "type": "string"
        }
      ],
      "stateMutability": "view",
      "type": "function"
    },
    {
      "inputs": [
        {
          "internalType": "address",
          "name": "player",
          "type": "address"
        }
      ],
      "name": "getPlayerXP",
      "outputs": [
        {
          "internalType": "uint256",
          "name": "",
          "type": "uint256"
        }
      ],
      "stateMutability": "view",
      "type": "function"
    },
    {
      "inputs": [
        {
          "internalType": "uint256",
          "name": "gameId",
          "type": "uint256"
        }
      ],
      "name": "getQualifiedPlayers",
      "outputs": [
        {
          "internalType": "address[]",
          "name": "",
          "type": "address[]"
        }
      ],
      "stateMutability": "view",
      "type": "function"
    },
    {
      "inputs": [
        {
          "internalType": "uint256",
          "name": "roomId",
          "type": "uint256"
        }
      ],
      "name": "getRoomInfo",
      "outputs": [
        {
          "internalType": "uint256",
          "name": "id",
          "type": "uint256"
        },
        {
          "internalType": "address",
          "name": "creator",
          "type": "address"
        },
        {
          "internalType": "uint8",
          "name": "playerCount",
          "type": "uint8"
        },
        {
          "internalType": "bool",
          "name": "isActive",
          "type": "bool"
        },
        {
          "internalType": "uint256",
          "name": "createdAt",
          "type": "uint256"
        },
        {
          "internalType": "uint256",
          "name": "currentGameId",
          "type": "uint256"
        },
        {
          "internalType": "address[]",
          "name": "playerAddresses",
          "type": "address[]"
        }
      ],
      "stateMutability": "view",
      "type": "function"
    },
    {
      "inputs": [
        {
          "internalType": "address",
          "name": "",
          "type": "address"
        }
      ],
      "name": "hasBalance",
      "outputs": [
        {
          "internalType": "bool",
          "name": "",
          "type": "bool"
        }
      ],
      "stateMutability": "view",
      "type": "function"
    },
    {
      "inputs": [
        {
          "internalType": "uint256",
          "name": "roomId",
          "type": "uint256"
        },
        {
          "internalType": "string",
          "name": "displayName",
          "type": "string"
        }
      ],
      "name": "joinRoom",
      "outputs": [],
      "stateMutability": "nonpayable",
      "type": "function"
    },
    {
      "inputs": [],
      "name": "owner",
      "outputs": [
        {
          "internalType": "address",
          "name": "",
          "type": "address"
        }
      ],
      "stateMutability": "view",
      "type": "function"
    },
    {
      "inputs": [
        {
          "internalType": "uint256",
          "name": "",
          "type": "uint256"
        }
      ],
      "name": "pendingBalanceChecks",
      "outputs": [
        {
          "internalType": "address",
          "name": "player",
          "type": "address"
        },
        {
          "internalType": "euint32",
          "name": "amount",
          "type": "uint256"
        },
        {
          "internalType": "bool",
          "name": "isAddition",
          "type": "bool"
        }
      ],
      "stateMutability": "view",
      "type": "function"
    },
    {
      "inputs": [
        {
          "internalType": "uint256",
          "name": "",
          "type": "uint256"
        }
      ],
      "name": "pendingGuessRequests",
      "outputs": [
        {
          "internalType": "uint256",
          "name": "gameId",
          "type": "uint256"
        },
        {
          "internalType": "address",
          "name": "player",
          "type": "address"
        },
        {
          "internalType": "uint256",
          "name": "timestamp",
          "type": "uint256"
        },
        {
          "internalType": "uint8",
          "name": "attemptNumber",
          "type": "uint8"
        }
      ],
      "stateMutability": "view",
      "type": "function"
    },
    {
      "inputs": [],
      "name": "pendingRelayer",
      "outputs": [
        {
          "internalType": "address",
          "name": "",
          "type": "address"
        }
      ],
      "stateMutability": "view",
      "type": "function"
    },
    {
      "inputs": [
        {
          "internalType": "address",
          "name": "",
          "type": "address"
        }
      ],
      "name": "playerBalances",
      "outputs": [
        {
          "internalType": "euint32",
          "name": "",
          "type": "uint256"
        }
      ],
      "stateMutability": "view",
      "type": "function"
    },
    {
      "inputs": [
        {
          "internalType": "address",
          "name": "",
          "type": "address"
        }
      ],
      "name": "playerXP",
      "outputs": [
        {
          "internalType": "uint256",
          "name": "",
          "type": "uint256"
        }
      ],
      "stateMutability": "view",
      "type": "function"
    },
    {
      "inputs": [
        {
          "internalType": "address",
          "name": "newRelayer",
          "type": "address"
        }
      ],
      "name": "proposeRelayer",
      "outputs": [],
      "stateMutability": "nonpayable",
      "type": "function"
    },
    {
      "inputs": [],
      "name": "relayer",
      "outputs": [
        {
          "internalType": "address",
          "name": "",
          "type": "address"
        }
      ],
      "stateMutability": "view",
      "type": "function"
    },
    {
      "inputs": [],
      "name": "relayerProposalTime",
      "outputs": [
        {
          "internalType": "uint256",
          "name": "",
          "type": "uint256"
        }
      ],
      "stateMutability": "view",
      "type": "function"
    },
    {
      "inputs": [],
      "name": "renounceOwnership",
      "outputs": [],
      "stateMutability": "nonpayable",
      "type": "function"
    },
    {
      "inputs": [],
      "name": "requestBalanceDecryption",
      "outputs": [
        {
          "internalType": "uint256",
          "name": "",
          "type": "uint256"
        }
      ],
      "stateMutability": "nonpayable",
      "type": "function"
    },
    {
      "inputs": [],
      "name": "roomCounter",
      "outputs": [
        {
          "internalType": "uint256",
          "name": "",
          "type": "uint256"
        }
      ],
      "stateMutability": "view",
      "type": "function"
    },
    {
      "inputs": [
        {
          "internalType": "uint256",
          "name": "",
          "type": "uint256"
        }
      ],
      "name": "rooms",
      "outputs": [
        {
          "internalType": "uint256",
          "name": "roomId",
          "type": "uint256"
        },
        {
          "internalType": "address",
          "name": "creator",
          "type": "address"
        },
        {
          "internalType": "uint8",
          "name": "playerCount",
          "type": "uint8"
        },
        {
          "internalType": "euint32",
          "name": "encryptedPrizePool",
          "type": "uint256"
        },
        {
          "internalType": "bool",
          "name": "isActive",
          "type": "bool"
        },
        {
          "internalType": "uint256",
          "name": "createdAt",
          "type": "uint256"
        },
        {
          "internalType": "uint256",
          "name": "currentGameId",
          "type": "uint256"
        }
      ],
      "stateMutability": "view",
      "type": "function"
    },
    {
      "inputs": [
        {
          "internalType": "address",
          "name": "newRelayer",
          "type": "address"
        }
      ],
      "name": "setRelayer",
      "outputs": [],
      "stateMutability": "nonpayable",
      "type": "function"
    },
    {
      "inputs": [
        {
          "internalType": "uint256",
          "name": "roomId",
          "type": "uint256"
        },
        {
          "internalType": "einput[]",
          "name": "encryptedLetters",
          "type": "bytes32[]"
        },
        {
          "internalType": "bytes[]",
          "name": "inputProofs",
          "type": "bytes[]"
        },
        {
          "internalType": "uint8",
          "name": "wordLength",
          "type": "uint8"
        }
      ],
      "name": "startGame",
      "outputs": [
        {
          "internalType": "uint256",
          "name": "",
          "type": "uint256"
        }
      ],
      "stateMutability": "nonpayable",
      "type": "function"
    },
    {
      "inputs": [
        {
          "internalType": "uint256",
          "name": "gameId",
          "type": "uint256"
        },
        {
          "internalType": "einput[]",
          "name": "encryptedGuessLetters",
          "type": "bytes32[]"
        },
        {
          "internalType": "bytes[]",
          "name": "inputProofs",
          "type": "bytes[]"
        }
      ],
      "name": "submitGuess",
      "outputs": [
        {
          "internalType": "uint256",
          "name": "",
          "type": "uint256"
        }
      ],
      "stateMutability": "nonpayable",
      "type": "function"
    },
    {
      "inputs": [
        {
          "internalType": "address",
          "name": "newOwner",
          "type": "address"
        }
      ],
      "name": "transferOwnership",
      "outputs": [],
      "stateMutability": "nonpayable",
      "type": "function"
    }
  ],
  "bytecode": "0x608034620000da57601f6200397938819003918201601f19168301916001600160401b03831184841017620000de57808492602094604052833981010312620000da57516001600160a01b039081811690819003620000da573315620000c257600a8054336001600160a01b03198083168217909355604051949091167f8be0079c531659141344cd1fd0a4f28419497f9722a3daafe3b4186f6b6457e05f80a36001600b55600e541617600e555f600c555f600d556138869081620000f38239f35b604051631e4fbdf760e01b81525f6004820152602490fd5b5f80fd5b634e487b7160e01b5f52604160045260245ffdfe6080806040526004361015610012575f80fd5b60e05f35811c9182631bae0ac814612b065750816322b2678a14612ac957816325f3c1bd14612a3b5781632639e4e4146129615781632e0be39a1461294457816331323cc11461292857816331f4a2b41461290d5781633a2b81c2146128b65781633ccd10e91461276b578163407eaf321461275057816347e1d550146126cf578163526d8d641461266c57816352dee7961461268e5781635b82648414612671578163641629d71461266c5781636548e9bc146126205781636790d2b51461258f578163682ac9b314611f3f5781636a5d1de114611f09578163715018a614611eae5781637306d2dd14611b60578163767aa3c2146119645781637b38314c1461192c5781637d317a9f146119105781638406c079146118e85781638da5cb5b146118c0578163921c45ca146118a35781639ac3cc0d146118555781639d9b4cbf14610313578163a57f5f5814611816578163ae804e7e14611607578163b01a5da21461123157508063b2b42a2914610e1d578063b8ef618014610e02578063ba78507f14610cc5578063bbcd6a0614610c25578063c00f2b1f14610c0a578063c5516de714610b2d578063cb39b7a814610b05578063d25ea53a14610a58578063d4bd834d14610a3d578063dbe3010c14610a21578063df2529c51461034b578063f2d8f25514610313578063f2fde38b1461028c578063f603b06514610271578063f6d361cc1461024f5763f8d3d4e41461022e575f80fd5b3461024b575f36600319011261024b576020601054604051908152f35b5f80fd5b3461024b575f36600319011261024b576020604051678ac7230489e800008152f35b3461024b575f36600319011261024b57602060405160028152f35b3461024b57602036600319011261024b576102a5612b7b565b6102ad6130ad565b6001600160a01b039081169081156102fb57600a54826001600160601b0360a01b821617600a55167f8be0079c531659141344cd1fd0a4f28419497f9722a3daafe3b4186f6b6457e05f80a3005b604051631e4fbdf760e01b81525f6004820152602490fd5b3461024b57602036600319011261024b576001600160a01b03610334612b7b565b165f526015602052602060405f2054604051908152f35b3461024b57606036600319011261024b576001600160401b0360243581811161024b5761037c903690600401612c26565b909160443590811161024b57610396903690600401612c26565b6004355f52601260205260ff600860405f200154166109e4576004355f526012602052600560405f20015442116109aa576103cf6131bf565b6004355f52601260205260405f209260018401545f526011602052600360405f2001335f5260205260405f2094600286015460ff8160101c161561097757600487015490600260ff8316101561093f5760ff6003880154168403610906578160ff610440816301000000951661309c565b169060ff191617600489015563ff000000191617600287015542600387015560ff6003860154169561047187613064565b9661047f6040519889612cd6565b80885261048e601f1991613064565b013660208901375f5b60ff6003880154168110156104e457806104d36104b76001938787612ee3565b356104cd6104c6848a8c612ef3565b3691612cf7565b90613580565b6104dd828b613088565b5201610497565b8782885f602060018060a01b035f805160206138318339815191525416604460405180948193631ce2e8d760e31b8352600160048401528160248401525af1908115610650575f916108d4575b50925f935b60ff6003840154168510156106b05761054f8583613088565b5161055d8660028601612eac565b90549060031b1c81156106a0575b801561068e575b602090606460018060a01b035f805160206138318339815191525416935f6040519586948593630d7c62eb60e31b8552600485015260248401528160448401525af18015610650575f9061065b575b60209150606460018060a01b035f805160206138318339815191525416935f6040519586948593630ccd46b160e31b8552600485015260248401528160448401525af18015610650575f9061061d575b60019150940193610536565b506020813d602011610648575b8161063760209383612cd6565b8101031261024b5760019051610611565b3d915061062a565b6040513d5f823e3d90fd5b506020813d602011610686575b8161067560209383612cd6565b8101031261024b57602090516105c1565b3d9150610668565b5060206106996134c0565b9050610572565b90506106aa6134c0565b9061056b565b83604051916106be83612cbb565b60018352602036818501376106d28361307b565b52606442018042116108c0575f805160206137f1833981519152545f93906001600160a01b0316803b1561024b575f604051809263155f840160e21b825260206004830152818381610727602482018961318c565b03925af18015610650576108ab575b505f8051602061381183398151915254604051634c0d927760e01b815260a060048201529260209284926001600160a01b03169183918891839161077e9060a484019061318c565b9063b2b42a2960e01b6024840152836044840152606483015282608483015203925af192831561089f579261086a575b60208360ff6004858282820154168360036040516107cb81612c8d565b85358152888101338152604082019042825260608301958652895f5260168b5260405f2092518355600183019060018060a01b039051166001600160601b0360a01b825416179055516002820155019151168419825416179055015416604051908282528382015233907f33108f2ab57fbf320f7eda9678f0576a750463e4c537f30cc763038511769fab604060043592a36001600b55604051908152f35b91506020823d602011610897575b8161088560209383612cd6565b8101031261024b5790519060ff6107ae565b3d9150610878565b604051903d90823e3d90fd5b6108b6919450612ca8565b5f9261077e610736565b634e487b7160e01b5f52601160045260245ffd5b90506020813d6020116108fe575b816108ef60209383612cd6565b8101031261024b575184610531565b3d91506108e2565b60405162461bcd60e51b81526020600482015260116024820152700aee4dedcce40eedee4c840d8cadccee8d607b1b6044820152606490fd5b60405162461bcd60e51b815260206004820152601060248201526f139bc8185d1d195b5c1d1cc81b19599d60821b6044820152606490fd5b60405162461bcd60e51b815260206004820152600b60248201526a4e6f7420696e2067616d6560a81b6044820152606490fd5b60405162461bcd60e51b8152602060048201526012602482015271149bdd5b99081d1a5b5948195e1c1a5c995960721b6044820152606490fd5b60405162461bcd60e51b815260206004820152601560248201527447616d6520616c726561647920636f6d706c65746560581b6044820152606490fd5b3461024b575f36600319011261024b576020604051611b588152f35b3461024b575f36600319011261024b57602060405160038152f35b3461024b57602036600319011261024b57600e5460043590610a8f90336001600160a01b0391821614908115610af7575b50612e29565b610a976131bf565b805f526012602052600560405f200154421115610abe57610ab7906131e2565b6001600b55005b60405162461bcd60e51b8152602060048201526011602482015270149bdd5b99081b9bdd08195e1c1a5c9959607a1b6044820152606490fd5b9050600a5416331483610a89565b3461024b575f36600319011261024b57600f546040516001600160a01b039091168152602090f35b3461024b57604036600319011261024b5760043560243563ffffffff811680910361024b575f80516020613811833981519152546001600160a01b0391908216330361024b5760407f198c9a3869a23d7c0e404b2f9adb78e7f3c699f6df9bfc4ffa588c64036d217e91610b9f6131bf565b845f526017602052815f20938260ff6002825193610bbc85612c72565b885416978885526001810154602086015201541615159101528151908152426020820152a25f5260176020525f60026040822082815582600182015501556001600b55602060405160018152f35b3461024b575f36600319011261024b57602060405160648152f35b3461024b575f36600319011261024b57610c3d6130ad565b600f546001600160a01b038116908115610c8a576001600160601b0360a01b16600f555f6010557fec92b9d10474c1c58d795e45e5c375616d8e9a271bedeff0d3774d0aab2561115f80a2005b60405162461bcd60e51b81526020600482015260136024820152722737903832b73234b733903a3930b739b332b960691b6044820152606490fd5b3461024b575f36600319011261024b57600f546001600160a01b038082169133839003610dc7578215610d8d576010546201518081018091116108c0574210610d4f57600e54906001600160601b0360a01b908482841617600e5516600f555f601055167fec687a0257b916a123ddd425fef7a6c346ea16af6fdfe9cb57662448bd522fbc5f80a3005b60405162461bcd60e51b8152602060048201526016602482015275151c985b9cd9995c8819195b185e481b9bdd081b595d60521b6044820152606490fd5b60405162461bcd60e51b81526020600482015260126024820152712737903832b73234b733903932b630bcb2b960711b6044820152606490fd5b60405162461bcd60e51b81526020600482015260136024820152722737ba103832b73234b733903932b630bcb2b960691b6044820152606490fd5b3461024b575f36600319011261024b576020604051600a8152f35b3461024b57604036600319011261024b5760243580151560043581830361024b575f80516020613811833981519152546001600160a01b0316330361024b57610e646131bf565b805f52601660205260405f209260405192610e7e84612c8d565b84549182855260018060a01b0360018701541691602086019283526002870154916040870192835260ff6003809901541694606088019586525f52601260205260405f209060018201545f526011602052600360405f200160018060a01b038651165f5260205260405f20908061121f575b611064575b50507fe4a3bb819c89bba727108926b18f357c35ed029472eacb3344f275dac2d7e0d8915060409060ff87519460018060a01b0390511695511682519182526020820152a35f5260166020525f60036040822082815582600182015582600282015501555190815f52601260205260405f209060018201545f52601160205260405f20915f915f906002850154915b828110610fd65750505060ff6004600582930154421194015416911610158115610fce575b50610fbf575b6001600b55602060405160018152f35b610fc8906131e2565b80610faf565b905082610fa9565b610fe38160028801612eac565b905490831b1c6001600160a01b03165f9081526003870160205260409020600281015490601082901c60ff161561105a5760ff6004600292015416109081159161104c575b50611038575b6001905b01610f84565b9361104460019161309c565b94905061102e565b60ff915060201c1688611028565b5050600190611032565b60026110b1910161109c60ff64010000000083548261108481831661309c565b169064ff000000ff1916171780845560081c1661309c565b61ff0082549160081b169061ff001916179055565b60068101805460ff8116600a8110156111da576110cf60ff9161309c565b60ff19909216911617905583516110f2906001600160a01b031660078301612ff0565b60046064935191015481039081116108c0576014116111d1575b600160ff855116146111bf575b60018060a01b038351165f52601560205260405f20908154928084018094116108c0577fe4a3bb819c89bba727108926b18f357c35ed029472eacb3344f275dac2d7e0d893604093557fa13e62b23f693fff23dadfb64a02b469698038185aee33e381d571ecbaed843c608060018060a01b03875116928551908152856020820152600d868201526c436f727265637420677565737360981b6060820152a29088610ef5565b90601981018091116108c05790611119565b6096915061110c565b60405162461bcd60e51b815260206004820152601d60248201527f4d6178207175616c696669656420706c617965727320726561636865640000006044820152606490fd5b5060ff600282015460201c1615610ef0565b3461024b57604036600319011261024b576004356024356001600160401b03811161024b57611264903690600401612d3c565b90805f52601160205261128060ff600660405f20015416612e6e565b805f52601160205260405f20600481019081549160ff83169260058410156115d6576003830193335f528460205260ff600260405f20015460101c1661159f57335f52601460205260405f205460ff166112d990612f34565b865115156112e690612f78565b8651601410156112f590612fb4565b6112fe9061309c565b60ff169060ff191617905533906002019061131891612ff0565b335f52601360205260405f2054906040519461133386612c56565b3386526020860192835260408601905f8252606087015f8152608088016001815260a08901915f835260c08a01935f85528a01955f87526101008b015f9052896101208c0152335f5260205260405f2096600160a01b600190038b51166001600160601b0360a01b89541617885551600188015560028701945160ff1660ff198654161785555160ff166113d890859061ff0082549160081b169061ff001916179055565b51835462ff0000191690151560101b62ff00001617835551825463ff000000191690151560181b63ff0000001617825551815464ff00000000191690151560201b64ff00000000161790555160038201556004810161010085015160ff1660ff198254161790556005019261012001519283516001600160401b03811161158b576114638254612d98565b601f8111611546575b50602094601f82116001146114e4579481929394955f926114d9575b50508160011b915f199060031b1c19161790555b7fa259bab503f65f6ae62d4f6a412b41b967799a284f69f21ba61362cf04e5eafa60405160208152806114d433956020830190612b91565b0390a3005b015190508580611488565b601f19821695835f5260205f20915f5b88811061152e57508360019596979810611516575b505050811b01905561149c565b01515f1960f88460031b161c19169055858080611509565b919260206001819286850151815501940192016114f4565b825f5260205f20601f830160051c81019160208410611581575b601f0160051c01905b818110611576575061146c565b5f8155600101611569565b9091508190611560565b634e487b7160e01b5f52604160045260245ffd5b60405162461bcd60e51b815260206004820152600f60248201526e416c726561647920696e20726f6f6d60881b6044820152606490fd5b60405162461bcd60e51b8152602060048201526009602482015268149bdbdb48199d5b1b60ba1b6044820152606490fd5b3461024b57604036600319011261024b576024356001600160401b0380821161024b573660238301121561024b57816004013590811161024b57366024828401011161024b576116b3916116679161165d6131bf565b6024369201612cf7565b5f80516020613831833981519152546040516302e817ff60e41b81526004803590820152336024820152608060448201529283926001600160a01b039283169184916084830190612b91565b91600160fa1b6064830152815f602097889503925af1918215610650575f926117e7575b505f805160206137f18339815191525416803b1561024b576040516346ce4e4960e11b815260048101839052336024820152905f908290604490829084905af18015610650576117d8575b50335f526014825260ff60405f2054165f146117b75761174d90335f526013835260405f20546130d9565b335f526013825260405f20555b335f526013815261177060405f20543090613516565b335f52601381526117853360405f2054613516565b7f35127daa9a364433b8c0088167a66055c055f07c5aca9b104d84c51bd7a367de604051914283523392a26001600b55005b6013825260405f20556014815260405f20600160ff1982541617905561175a565b6117e190612ca8565b82611722565b9091508281813d831161180f575b6117ff8183612cd6565b8101031261024b575190836116d7565b503d6117f5565b3461024b575f36600319011261024b57335f52601460205261183e60ff60405f20541661302b565b335f526013602052602060405f2054604051908152f35b3461024b57602036600319011261024b576004355f526017602052606060405f2060018060a01b038154169060ff600260018301549201541690604051928352602083015215156040820152f35b3461024b575f36600319011261024b576020600c54604051908152f35b3461024b575f36600319011261024b57600a546040516001600160a01b039091168152602090f35b3461024b575f36600319011261024b57600e546040516001600160a01b039091168152602090f35b3461024b575f36600319011261024b5760206040516103e88152f35b3461024b57602036600319011261024b576001600160a01b0361194d612b7b565b165f526013602052602060405f2054604051908152f35b3461024b575f36600319011261024b57335f5260206014815261198d60ff60405f20541661302b565b60405161199981612cbb565b60018152813681830137335f526013825260405f20546119b88261307b565b5260644201908142116108c0575f805160206137f1833981519152545f926001600160a01b03929091831690813b1561024b575f604051809363155f840160e21b8252886004830152818381611a11602482018861318c565b03925af1918215610650578692611b47575b50611a5f90845f8051602061381183398151915254169086604051809681958294634c0d927760e01b845260a0600485015260a484019061318c565b9063c5516de760e01b6024840152836044840152606483015282608483015203925af192831561089f5792611b18575b506002604051611a9e81612c72565b3381528481015f815260408201935f8552855f526017875260405f209251166001600160601b0360a01b835416178255516001820155019051151560ff801983541691161790556040518181527fc166836148b97c8c872c8197649c955551bcbacf926f0322f451a6d6286c5180833392a2604051908152f35b9091508281813d8311611b40575b611b308183612cd6565b8101031261024b57519083611a8f565b503d611b26565b909450611b549150612ca8565b83611a5f5f9490611a23565b3461024b57602036600319011261024b576004356001600160401b03811161024b57611b90903690600401612d3c565b90335f526014602052611ba960ff60405f205416612f34565b611bb582511515612f78565b611bc3601483511115612fb4565b6101206005611bd3600c54612ed5565b9283600c55835f526011602052600360405f2085815560018101336001600160601b0360a01b82541617905560048101600160ff1982541617905560068101600160ff19825416179055426007820155611c2b61346a565b84820155611c3c3360028301612ff0565b335f52601360205260405f20549660405197611c5789612c56565b33895260208901525f60408901525f6060890152600160808901525f60a08901525f60c08901525f848901525f61010089015285880152335f520160205260405f209060018060a01b038651166001600160601b0360a01b83541617825560208601516001830155611d526002830160ff60408901511660ff19825416178155611cf960ff60608a015116829061ff0082549160081b169061ff001916179055565b6080880151815462ff0000191690151560101b62ff00001617815560a0880151815463ff000000191690151560181b63ff0000001617815560c0880151815464ff00000000191690151560201b64ff0000000016179055565b85015160038201556004810160ff6101008701511660ff1982541617905501920151908151926001600160401b03841161158b57611d908154612d98565b93601f8511611e69575b602094508493601f8211600114611e0a5793819293945f92611dff575b50508160011b915f199060031b1c19161790555b604051428152817fac131287fe8417903d89f4eb472bc1d0da81641ef725569346dab6c2879a6717843393a3604051908152f35b015190508580611db7565b601f19821694835f52865f20915f5b878110611e52575083600195969710611e3a575b505050811b019055611dcb565b01515f1960f88460031b161c19169055858080611e2d565b919288600181928685015181550194019201611e19565b815f5260205f20601f820160051c81019560208310611ea4575b601f0160051c01945b858110611e995750611d9a565b5f8155600101611e8c565b9095508590611e83565b3461024b575f36600319011261024b57611ec66130ad565b600a80546001600160a01b031981169091555f906001600160a01b03167f8be0079c531659141344cd1fd0a4f28419497f9722a3daafe3b4186f6b6457e08280a3005b3461024b57602036600319011261024b57611f226130ad565b6004355f908152601160205260409020600601805460ff19169055005b3461024b57608036600319011261024b576001600160401b0360243581811161024b57611f70903690600401612c26565b909160443590811161024b57611f8a903690600401612c26565b909260ff606435166064350361024b57600e546001600160a01b03163314801561257b575b611fb890612e29565b6004355f526011602052611fd560ff600660405f20015416612e6e565b6004355f52601160205260405f2092600260ff6004860154161061254457600360ff60643516101580612534575b156124f95760ff6064351681036124bb575f5b60028501548110156122805761202f8160028701612eac565b905460039190911b1c6001600160a01b03169061204a61340d565b825f52601360205260405f2054908082908315612270575b821561225e575b602090606460018060a01b035f805160206138318339815191525416935f604051958694859363052896f160e01b8552600485015260248401528160448401525af1908115610650575f9161222c575b50818392841561221c575b1561220a575b602090606460018060a01b035f805160206138318339815191525416945f6040519687948593638c14cc2160e01b8552600485015260248401528160448401525af1918215610650575f926121d5575b509060646020925f60018060a01b035f805160206138318339815191525416604051968795869463cb3b940760e01b86526004860152602485015260448401525af1908115610650575f916121a2575b508261218a61219c926001955f5260136020528060405f20553090613516565b805f52601360205260405f2054613516565b01612016565b90506020813d6020116121cd575b816121bd60209383612cd6565b8101031261024b5751600161216a565b3d91506121b0565b91506020823d602011612202575b816121f060209383612cd6565b8101031261024b57905190606461211a565b3d91506121e3565b50602061221561346a565b90506120ca565b925061222661346a565b926120c4565b90506020813d602011612256575b8161224760209383612cd6565b8101031261024b57518a6120b9565b3d915061223a565b50602061226961346a565b9050612069565b905061227a61346a565b90612062565b508460ff600486015416678ac7230489e800008181020481036108c0575f8051602061383183398151915254604051631ce2e8d760e31b8152678ac7230489e800009092026004830152600160fa1b6024830152602090829060449082905f906001600160a01b03165af18015610650575f90612487575b612316915061230c600588019182546130d9565b8091553090613516565b612321600d54612ed5565b600d8190555f818152601260205260409020818155600435600182015560038101805461ffff191660643560ff81169190911760089190911b61ff001617905590949092426004850155603c420142116108c05742603c01600585015560068401805460ff1916905560088401805461ffff19169055600290930193925f5b60ff606435168110612425576020878060088b01558060405160ff60643516815242848201527f9291ff09e85b14b3a3fc291d09468bbfd88d5198c7b57d4cabe3c7d2f2b4bd06604060043592a3807ff9c3705d2b5e8de4faecc108f55f2c1ec36bca34c51e31ad889f6acc4989c7fe8360405160ff606435168152a2604051908152f35b612442612433828488612ee3565b356104cd6104c6848789612ef3565b908654600160401b81101561158b57600192612466828561248194018b558a612eac565b81549060031b9083821b915f19901b19161790553090613516565b016123a0565b506020813d6020116124b3575b816124a160209383612cd6565b8101031261024b5761231690516122f8565b3d9150612494565b60405162461bcd60e51b8152602060048201526016602482015275098cae8e8cae4e640c6deeadce840dad2e6dac2e8c6d60531b6044820152606490fd5b60405162461bcd60e51b8152602060048201526013602482015272092dcecc2d8d2c840eedee4c840d8cadccee8d606b1b6044820152606490fd5b50600560ff606435161115612003565b60405162461bcd60e51b815260206004820152600f60248201526e4e65656420322b20706c617965727360881b6044820152606490fd5b50600a546001600160a01b03163314611faf565b3461024b57602036600319011261024b576004355f52601160205260405f2061261c81549160018060a01b036001820154169360ff6004830154169160ff6006820154166007820154906125ea600260088501549401612dd0565b9460405198899889526020890152604088015215156060870152608086015260a08501528060c0850152830190612bea565b0390f35b3461024b57602036600319011261024b57612639612b7b565b6126416130ad565b6001600160a01b0316612655811515612d5a565b6001600160601b0360a01b600e541617600e555f80f35b612bcf565b3461024b575f36600319011261024b576020604051620151808152f35b3461024b57602036600319011261024b576004355f52601260205261261c6126bb600760405f2001612dd0565b604051918291602083526020830190612bea565b3461024b57602036600319011261024b57610100906004355f52601260205260405f20908154916001810154906003810154600482015460ff6005840154928160088160068801541696015416956040519889526020890152818116604089015260081c166060870152608086015260a085015260c0840152151590820152f35b3461024b575f36600319011261024b576020604051603c8152f35b3461024b57604036600319011261024b576001600160a01b036024358181169081900361024b576004355f5260209060118252600360405f2001905f52815260405f20918254169160028101549160ff93600585600485015416930195604051935f9780546127d981612d98565b80885291600191808316908115612894575060011461285a575b5050506128078561261c9798990386612cd6565b6040519788976101009586958a52828216818b0152828260081c1660408b0152828260101c16151560608b0152828260181c16151560808b01521c16151560a088015260c0870152850152830190612b91565b5f908152868120909a505b828b10612881575050509684018301966128078561261c6127f3565b8054888c01880152998601998101612865565b60ff1916888a0152505050151560051b8501840197506128078561261c6127f3565b3461024b57602036600319011261024b576004355f526016602052608060405f2080549060018060a01b036001820154169060ff600360028301549201541691604051938452602084015260408301526060820152f35b3461024b575f36600319011261024b57602060405160418152f35b3461024b575f36600319011261024b5760206040516107d08152f35b3461024b575f36600319011261024b576020600d54604051908152f35b3461024b57602036600319011261024b5761297a612b7b565b6129826130ad565b6001600160a01b0390811690612999821515612d5a565b600e54168082146129f657816001600160601b0360a01b600f541617600f55426010556201518042018042116108c05760207f4bad0a39f791467900c008bdcbb1bb99b5dfcecbf809048de4965bcbfdfbbb5291604051908152a3005b60405162461bcd60e51b815260206004820152601760248201527f416c72656164792063757272656e742072656c617965720000000000000000006044820152606490fd5b3461024b57602036600319011261024b57610120906004355f52601260205260ff60405f20805492600182015491600381015460048201548560058401549260088260068701541695015496604051998a5260208a015281811660408a015260081c166060880152608087015260a086015260c085015282821615159084015260081c161515610100820152f35b3461024b57602036600319011261024b576001600160a01b03612aea612b7b565b165f526014602052602060ff60405f2054166040519015158152f35b3461024b57602036600319011261024b576004355f52601160205260405f2080549060018060a01b0360018201541660ff60048301541660058301549060ff60068501541692600860078601549501549587526020870152604086015260608501521515608084015260a083015260c0820152f35b600435906001600160a01b038216820361024b57565b91908251928382525f5b848110612bbb575050825f602080949584010152601f8019910116010190565b602081830181015184830182015201612b9b565b3461024b575f36600319011261024b57602060405160058152f35b9081518082526020808093019301915f5b828110612c09575050505090565b83516001600160a01b031685529381019392810192600101612bfb565b9181601f8401121561024b578235916001600160401b03831161024b576020808501948460051b01011161024b57565b61014081019081106001600160401b0382111761158b57604052565b606081019081106001600160401b0382111761158b57604052565b608081019081106001600160401b0382111761158b57604052565b6001600160401b03811161158b57604052565b604081019081106001600160401b0382111761158b57604052565b90601f801991011681019081106001600160401b0382111761158b57604052565b9291926001600160401b03821161158b5760405191612d20601f8201601f191660200184612cd6565b82948184528183011161024b578281602093845f960137010152565b9080601f8301121561024b57816020612d5793359101612cf7565b90565b15612d6157565b60405162461bcd60e51b815260206004820152600f60248201526e496e76616c6964206164647265737360881b6044820152606490fd5b90600182811c92168015612dc6575b6020831014612db257565b634e487b7160e01b5f52602260045260245ffd5b91607f1691612da7565b90604051918281549182825260209260208301915f5260205f20935f905b828210612e0657505050612e0492500383612cd6565b565b85546001600160a01b031684526001958601958895509381019390910190612dee565b15612e3057565b60405162461bcd60e51b81526020600482015260166024820152752737ba1030baba3437b934bd32b2103932b630bcb2b960511b6044820152606490fd5b15612e7557565b60405162461bcd60e51b815260206004820152600f60248201526e526f6f6d206e6f742061637469766560881b6044820152606490fd5b8054821015612ec1575f5260205f2001905f90565b634e487b7160e01b5f52603260045260245ffd5b5f1981146108c05760010190565b9190811015612ec15760051b0190565b9190811015612ec15760051b81013590601e198136030182121561024b5701908135916001600160401b03831161024b57602001823603811361024b579190565b15612f3b57565b60405162461bcd60e51b815260206004820152601560248201527411195c1bdcda5d0818985b185b98d948199a5c9cdd605a1b6044820152606490fd5b15612f7f57565b60405162461bcd60e51b815260206004820152600d60248201526c13985b59481c995c5d5a5c9959609a1b6044820152606490fd5b15612fbb57565b60405162461bcd60e51b815260206004820152600d60248201526c4e616d6520746f6f206c6f6e6760981b6044820152606490fd5b8054600160401b81101561158b5761300d91600182018155612eac565b60018060a09493941b038084549260031b9316831b921b1916179055565b1561303257565b60405162461bcd60e51b815260206004820152600a6024820152694e6f2062616c616e636560b01b6044820152606490fd5b6001600160401b03811161158b5760051b60200190565b805115612ec15760200190565b8051821015612ec15760209160051b010190565b60ff1660ff81146108c05760010190565b600a546001600160a01b031633036130c157565b60405163118cdaa760e01b8152336004820152602490fd5b90811561317c575b801561316a575b602090606460018060a01b035f805160206138318339815191525416935f604051958694859363f953e42760e01b8552600485015260248401528160448401525af1908115610650575f9161313b575090565b90506020813d602011613162575b8161315660209383612cd6565b8101031261024b575190565b3d9150613149565b50602061317561346a565b90506130e8565b905061318661346a565b906130e1565b9081518082526020808093019301915f5b8281106131ab575050505090565b83518552938101939281019260010161319d565b6002600b54146131d0576002600b55565b604051633ee5aeb560e01b8152600490fd5b805f52602090601282526040805f2092600884019182549460ff8616613405576001938460ff1980981617905584600760ff60068401541692018351908482018483528587840152815480915260608301915f52865f20905f5b89898383106133e757505050505090807fde21a45d4671414148711510a57b813cb8f0ee0c8d2afec28cf4b66e33c3fb22920390a28084036132865750505050612e04915061366b565b929392806133355750825f526012825283815f2001545f5260118252805f20936132ae61340d565b600286015f835b6132f4575b50505050917ff1898de79c348962fab7695532341027e5bceb0ea2a8785790fa7d7efeeee1295f926006959451428152a301908154169055565b8154811015613330579083826133278561331084979686612eac565b905460039190911b1c6001600160a01b03166137a0565b019091926132b5565b6132ba565b6004909492949391931161334b575b5050505050565b5f9291925260128352805f2091808301545f5260118452815f20918160049560078601946003809101925b613399575b50505050505060049150600601918254161790555f80808080613344565b85548810156133e25784886133b188999a8399612eac565b905490841b1c6001600160a01b03165f908152858552869020600201805464ff00ff00001916905501979695613376565b61337b565b84546001600160a01b031686528c975090940193928301920161323c565b505050505050565b5f8051602061383183398151915254604051631ce2e8d760e31b8152678ac7230489e800006004820152600160fa1b602482015290602090829060449082905f906001600160a01b03165af1908115610650575f9161313b575090565b5f8051602061383183398151915254604051631ce2e8d760e31b81525f60048201819052600160fa1b60248301529091602091839160449183916001600160a01b03165af1908115610650575f9161313b575090565b5f8051602061383183398151915254604051631ce2e8d760e31b81525f60048201819052600160f91b60248301529091602091839160449183916001600160a01b03165af1908115610650575f9161313b575090565b5f805160206137f1833981519152546001600160a01b031691823b1561024b57604051631974142760e21b815260048101929092526001600160a01b03166024820152905f908290818381604481015b03925af18015610650576135775750565b612e0490612ca8565b5f80516020613831833981519152546040516302e817ff60e41b81526004810192909252336024830152608060448301526001600160a01b03939260209183919086169082905f9082906135d8906084830190612b91565b600160f91b606483015203925af1908115610650575f91613639575b5080925f805160206137f18339815191525416803b1561024b576040516346ce4e4960e11b815260048101929092523360248301525f90829081838160448101613566565b90506020813d602011613663575b8161365460209383612cd6565b8101031261024b57515f6135f4565b3d9150613647565b805f5260209060128252604091825f209160018301545f5260118252835f2092600881019081549160ff8360081c166137975761010060079361ff00191617905501805415612ec1575f5260018060a01b03825f205416916136d16005850154846137a0565b825f5260158152845f20908154956101f48088018098116108c0577fa13e62b23f693fff23dadfb64a02b469698038185aee33e381d571ecbaed843c6080879260069a7ff1898de79c348962fab7695532341027e5bceb0ea2a8785790fa7d7efeeee129975583887fdc1d0b6a7cbfa6f3b2d4325bab5a169b265ad0b2b4022fb550364f0dfeeb6a7488885160018152a384519081528486820152600b858201526a23b0b6b2903bb4b73732b960a91b6060820152a251428152a301805460ff19169055565b50505050505050565b6001600160a01b0381165f81815260136020526040902054612e04936137df916137ca91906130d9565b825f5260136020528060405f20553090613516565b5f52601360205260405f205461351656feed8d60e34876f751cc8b014c560745351147d9de11b9347c854e881b128ea60093ab6e17f2c461cce6ea5d4ec117e51dda77a64affc2b2c05f8cd440def0e700ed8d60e34876f751cc8b014c560745351147d9de11b9347c854e881b128ea601a26469706673582212206d6c956c546869bcdf8efa1ebfbd5d55f766860679d034ddb1cfd480f143893064736f6c63430008180033",
  "linkReferences": {},
  "deployedLinkReferences": {}
}